{
  "_format": "hh3-artifact-1",
  "contractName": "ReviewRegistry",
  "sourceName": "contracts/ReviewRegistry.sol",
  "abi": [
    {
      "anonymous": false,
      "inputs": [
        {
          "indexed": true,
          "internalType": "uint256",
          "name": "reviewId",
          "type": "uint256"
        },
        {
          "indexed": true,
          "internalType": "address",
          "name": "reviewer",
          "type": "address"
        },
        {
          "indexed": false,
          "internalType": "string",
          "name": "placeId",
          "type": "string"
        }
      ],
      "name": "ReviewSubmitted",
      "type": "event"
    },
    {
      "anonymous": false,
      "inputs": [
        {
          "indexed": true,
          "internalType": "uint256",
          "name": "reviewId",
          "type": "uint256"
        },
        {
          "indexed": true,
          "internalType": "address",
          "name": "voter",
          "type": "address"
        },
        {
          "indexed": false,
          "internalType": "int8",
          "name": "vote",
          "type": "int8"
        }
      ],
      "name": "ReviewVoted",
      "type": "event"
    },
    {
      "inputs": [
        {
          "internalType": "uint256",
          "name": "reviewId",
          "type": "uint256"
        }
      ],
      "name": "getReview",
      "outputs": [
        {
          "components": [
            {
              "internalType": "address",
              "name": "reviewer",
              "type": "address"
            },
            {
              "internalType": "string",
              "name": "placeId",
              "type": "string"
            },
            {
              "internalType": "string",
              "name": "ipfsHash",
              "type": "string"
            },
            {
              "internalType": "uint8",
              "name": "rating",
              "type": "uint8"
            },
            {
              "internalType": "uint256",
              "name": "timestamp",
              "type": "uint256"
            },
            {
              "internalType": "int256",
              "name": "reputationScore",
              "type": "int256"
            }
          ],
          "internalType": "struct ReviewRegistry.Review",
          "name": "",
          "type": "tuple"
        }
      ],
      "stateMutability": "view",
      "type": "function"
    },
    {
      "inputs": [
        {
          "internalType": "address",
          "name": "user",
          "type": "address"
        }
      ],
      "name": "getUserReputation",
      "outputs": [
        {
          "internalType": "int256",
          "name": "",
          "type": "int256"
        }
      ],
      "stateMutability": "view",
      "type": "function"
    },
    {
      "inputs": [],
      "name": "reviewCount",
      "outputs": [
        {
          "internalType": "uint256",
          "name": "",
          "type": "uint256"
        }
      ],
      "stateMutability": "view",
      "type": "function"
    },
    {
      "inputs": [
        {
          "internalType": "uint256",
          "name": "",
          "type": "uint256"
        }
      ],
      "name": "reviews",
      "outputs": [
        {
          "internalType": "address",
          "name": "reviewer",
          "type": "address"
        },
        {
          "internalType": "string",
          "name": "placeId",
          "type": "string"
        },
        {
          "internalType": "string",
          "name": "ipfsHash",
          "type": "string"
        },
        {
          "internalType": "uint8",
          "name": "rating",
          "type": "uint8"
        },
        {
          "internalType": "uint256",
          "name": "timestamp",
          "type": "uint256"
        },
        {
          "internalType": "int256",
          "name": "reputationScore",
          "type": "int256"
        }
      ],
      "stateMutability": "view",
      "type": "function"
    },
    {
      "inputs": [
        {
          "internalType": "string",
          "name": "placeId",
          "type": "string"
        },
        {
          "internalType": "string",
          "name": "ipfsHash",
          "type": "string"
        },
        {
          "internalType": "uint8",
          "name": "rating",
          "type": "uint8"
        }
      ],
      "name": "submitReview",
      "outputs": [],
      "stateMutability": "nonpayable",
      "type": "function"
    },
    {
      "inputs": [
        {
          "internalType": "address",
          "name": "",
          "type": "address"
        }
      ],
      "name": "userReputation",
      "outputs": [
        {
          "internalType": "int256",
          "name": "",
          "type": "int256"
        }
      ],
      "stateMutability": "view",
      "type": "function"
    },
    {
      "inputs": [
        {
          "internalType": "uint256",
          "name": "reviewId",
          "type": "uint256"
        },
        {
          "internalType": "int8",
          "name": "vote",
          "type": "int8"
        }
      ],
      "name": "voteReview",
      "outputs": [],
      "stateMutability": "nonpayable",
      "type": "function"
    }
  ],
  "bytecode": "0x6080604052348015600e575f5ffd5b50610ba48061001c5f395ff3fe608060405234801561000f575f5ffd5b506004361061007a575f3560e01c8063baccbfdb11610058578063baccbfdb146100cf578063e503bb0514610105578063e83ddcea14610124578063eff5924f14610149575f5ffd5b806371c5bbcb1461007e578063895f2e5014610093578063990581b6146100a6575b5f5ffd5b61009161008c36600461073a565b610152565b005b6100916100a136600461080c565b61028e565b6100b96100b4366004610889565b6103ef565b6040516100c691906108ce565b60405180910390f35b6100f76100dd366004610946565b6001600160a01b03165f9081526002602052604090205490565b6040519081526020016100c6565b6100f7610113366004610946565b60026020525f908152604090205481565b610137610132366004610889565b6105ea565b6040516100c696959493929190610973565b6100f760015481565b60015482106101a05760405162461bcd60e51b815260206004820152601560248201527414995d9a595dc8191bd95cc81b9bdd08195e1a5cdd605a1b60448201526064015b60405180910390fd5b805f0b600114806101b35750805f0b5f19145b6101f75760405162461bcd60e51b8152602060048201526015602482015274566f7465206d757374206265202b31206f72202d3160581b6044820152606401610197565b5f828152602081905260408120600581018054919284810b9261021b9084906109de565b909155505080546001600160a01b03165f908152600260205260408120805484830b929061024a9084906109de565b90915550506040515f83900b8152339084907f04a1a18f23cdc552c06861a942a253c661940dc7b191a4de8fd952265c0c2d1b9060200160405180910390a3505050565b60018160ff16101580156102a6575060058160ff1611155b6102e35760405162461bcd60e51b815260206004820152600e60248201526d496e76616c696420726174696e6760901b6044820152606401610197565b6040805160c081018252338152602080820186815282840186905260ff851660608401524260808401525f60a084018190526001805482529281905293909320825181546001600160a01b0319166001600160a01b039091161781559251919291908201906103529082610a89565b50604082015160028201906103679082610a89565b50606082015160038201805460ff191660ff9092169190911790556080820151600482015560a0909101516005909101556001546040513391907ff0906d4d262a532d67cb5e02d3670754cf0804da22ebe7eae7b42feafebee15b906103ce908790610b44565b60405180910390a360018054905f6103e583610b56565b9190505550505050565b6104306040518060c001604052805f6001600160a01b0316815260200160608152602001606081526020015f60ff1681526020015f81526020015f81525090565b60015482106104795760405162461bcd60e51b815260206004820152601560248201527414995d9a595dc8191bd95cc81b9bdd08195e1a5cdd605a1b6044820152606401610197565b5f8281526020818152604091829020825160c0810190935280546001600160a01b0316835260018101805491928401916104b290610a05565b80601f01602080910402602001604051908101604052809291908181526020018280546104de90610a05565b80156105295780601f1061050057610100808354040283529160200191610529565b820191905f5260205f20905b81548152906001019060200180831161050c57829003601f168201915b5050505050815260200160028201805461054290610a05565b80601f016020809104026020016040519081016040528092919081815260200182805461056e90610a05565b80156105b95780601f10610590576101008083540402835291602001916105b9565b820191905f5260205f20905b81548152906001019060200180831161059c57829003601f168201915b5050509183525050600382015460ff1660208201526004820154604082015260059091015460609091015292915050565b5f60208190529081526040902080546001820180546001600160a01b03909216929161061590610a05565b80601f016020809104026020016040519081016040528092919081815260200182805461064190610a05565b801561068c5780601f106106635761010080835404028352916020019161068c565b820191905f5260205f20905b81548152906001019060200180831161066f57829003601f168201915b5050505050908060020180546106a190610a05565b80601f01602080910402602001604051908101604052809291908181526020018280546106cd90610a05565b80156107185780601f106106ef57610100808354040283529160200191610718565b820191905f5260205f20905b8154815290600101906020018083116106fb57829003601f168201915b5050505060038301546004840154600590940154929360ff9091169290915086565b5f5f6040838503121561074b575f5ffd5b8235915060208301355f81900b8114610762575f5ffd5b809150509250929050565b634e487b7160e01b5f52604160045260245ffd5b5f82601f830112610790575f5ffd5b813567ffffffffffffffff8111156107aa576107aa61076d565b604051601f8201601f19908116603f0116810167ffffffffffffffff811182821017156107d9576107d961076d565b6040528181528382016020018510156107f0575f5ffd5b816020850160208301375f918101602001919091529392505050565b5f5f5f6060848603121561081e575f5ffd5b833567ffffffffffffffff811115610834575f5ffd5b61084086828701610781565b935050602084013567ffffffffffffffff81111561085c575f5ffd5b61086886828701610781565b925050604084013560ff8116811461087e575f5ffd5b809150509250925092565b5f60208284031215610899575f5ffd5b5035919050565b5f81518084528060208401602086015e5f602082860101526020601f19601f83011685010191505092915050565b602080825282516001600160a01b03168282015282015160c060408301525f906108fb60e08401826108a0565b90506040840151601f1984830301606085015261091882826108a0565b91505060ff6060850151166080840152608084015160a084015260a084015160c08401528091505092915050565b5f60208284031215610956575f5ffd5b81356001600160a01b038116811461096c575f5ffd5b9392505050565b6001600160a01b038716815260c0602082018190525f90610996908301886108a0565b82810360408401526109a881886108a0565b60ff9690961660608401525050608081019290925260a0909101529392505050565b634e487b7160e01b5f52601160045260245ffd5b8082018281125f8312801582168215821617156109fd576109fd6109ca565b505092915050565b600181811c90821680610a1957607f821691505b602082108103610a3757634e487b7160e01b5f52602260045260245ffd5b50919050565b601f821115610a8457805f5260205f20601f840160051c81016020851015610a625750805b601f840160051c820191505b81811015610a81575f8155600101610a6e565b50505b505050565b815167ffffffffffffffff811115610aa357610aa361076d565b610ab781610ab18454610a05565b84610a3d565b6020601f821160018114610ae9575f8315610ad25750848201515b5f19600385901b1c1916600184901b178455610a81565b5f84815260208120601f198516915b82811015610b185787850151825560209485019460019092019101610af8565b5084821015610b3557868401515f19600387901b60f8161c191681555b50505050600190811b01905550565b602081525f61096c60208301846108a0565b5f60018201610b6757610b676109ca565b506001019056fea2646970667358221220bc32ff96463d641048be03e932cf091c9823136dfb0ff4ca463c44d64309075464736f6c634300081c0033",
  "linkReferences": {},
  "deployedLinkReferences": {},
  "immutableReferences": {},
  "inputSourceName": "project/contracts/ReviewRegistry.sol",
  "buildInfoId": "solc-0_8_28-e44643bdf0e659ece9fb5cf996c5de410bc6083d"
}