{
  "_format": "hh3-artifact-1",
  "contractName": "ReviewRegistry",
  "sourceName": "contracts/ReviewRegistry.sol",
  "abi": [
    {
      "anonymous": false,
      "inputs": [
        {
          "indexed": true,
          "internalType": "uint256",
          "name": "reviewId",
          "type": "uint256"
        },
        {
          "indexed": true,
          "internalType": "uint256",
          "name": "replyIndex",
          "type": "uint256"
        },
        {
          "indexed": true,
          "internalType": "address",
          "name": "author",
          "type": "address"
        },
        {
          "indexed": false,
          "internalType": "string",
          "name": "ipfsHash",
          "type": "string"
        }
      ],
      "name": "ReplyAdded",
      "type": "event"
    },
    {
      "anonymous": false,
      "inputs": [
        {
          "indexed": false,
          "internalType": "uint256",
          "name": "reviewId",
          "type": "uint256"
        },
        {
          "indexed": true,
          "internalType": "address",
          "name": "reviewer",
          "type": "address"
        },
        {
          "indexed": false,
          "internalType": "string",
          "name": "placeId",
          "type": "string"
        },
        {
          "indexed": false,
          "internalType": "string",
          "name": "ipfsHash",
          "type": "string"
        },
        {
          "indexed": false,
          "internalType": "uint256",
          "name": "timestamp",
          "type": "uint256"
        }
      ],
      "name": "ReviewSubmitted",
      "type": "event"
    },
    {
      "anonymous": false,
      "inputs": [
        {
          "indexed": false,
          "internalType": "uint256",
          "name": "reviewId",
          "type": "uint256"
        },
        {
          "indexed": true,
          "internalType": "address",
          "name": "voter",
          "type": "address"
        },
        {
          "indexed": false,
          "internalType": "int8",
          "name": "vote",
          "type": "int8"
        },
        {
          "indexed": false,
          "internalType": "uint256",
          "name": "timestamp",
          "type": "uint256"
        }
      ],
      "name": "ReviewVoted",
      "type": "event"
    },
    {
      "inputs": [
        {
          "internalType": "uint256",
          "name": "reviewId",
          "type": "uint256"
        },
        {
          "internalType": "string",
          "name": "ipfsHash",
          "type": "string"
        },
        {
          "internalType": "uint256",
          "name": "parentReplyId",
          "type": "uint256"
        }
      ],
      "name": "addReply",
      "outputs": [],
      "stateMutability": "nonpayable",
      "type": "function"
    },
    {
      "inputs": [
        {
          "internalType": "uint256",
          "name": "reviewId",
          "type": "uint256"
        },
        {
          "internalType": "uint256",
          "name": "index",
          "type": "uint256"
        }
      ],
      "name": "getReply",
      "outputs": [
        {
          "internalType": "address",
          "name": "author",
          "type": "address"
        },
        {
          "internalType": "string",
          "name": "ipfsHash",
          "type": "string"
        },
        {
          "internalType": "uint256",
          "name": "timestamp",
          "type": "uint256"
        },
        {
          "internalType": "uint256",
          "name": "parentReplyId",
          "type": "uint256"
        }
      ],
      "stateMutability": "view",
      "type": "function"
    },
    {
      "inputs": [
        {
          "internalType": "uint256",
          "name": "reviewId",
          "type": "uint256"
        }
      ],
      "name": "getReplyCount",
      "outputs": [
        {
          "internalType": "uint256",
          "name": "",
          "type": "uint256"
        }
      ],
      "stateMutability": "view",
      "type": "function"
    },
    {
      "inputs": [
        {
          "internalType": "uint256",
          "name": "reviewId",
          "type": "uint256"
        }
      ],
      "name": "getReview",
      "outputs": [
        {
          "components": [
            {
              "internalType": "address",
              "name": "reviewer",
              "type": "address"
            },
            {
              "internalType": "string",
              "name": "placeId",
              "type": "string"
            },
            {
              "internalType": "string",
              "name": "ipfsHash",
              "type": "string"
            },
            {
              "internalType": "uint8",
              "name": "rating",
              "type": "uint8"
            },
            {
              "internalType": "uint256",
              "name": "timestamp",
              "type": "uint256"
            },
            {
              "internalType": "int256",
              "name": "reputationScore",
              "type": "int256"
            }
          ],
          "internalType": "struct ReviewRegistry.Review",
          "name": "",
          "type": "tuple"
        }
      ],
      "stateMutability": "view",
      "type": "function"
    },
    {
      "inputs": [
        {
          "internalType": "uint256",
          "name": "reviewId",
          "type": "uint256"
        }
      ],
      "name": "getScore",
      "outputs": [
        {
          "internalType": "int256",
          "name": "",
          "type": "int256"
        }
      ],
      "stateMutability": "view",
      "type": "function"
    },
    {
      "inputs": [
        {
          "internalType": "address",
          "name": "user",
          "type": "address"
        }
      ],
      "name": "getUserReputation",
      "outputs": [
        {
          "internalType": "int256",
          "name": "",
          "type": "int256"
        }
      ],
      "stateMutability": "view",
      "type": "function"
    },
    {
      "inputs": [
        {
          "internalType": "uint256",
          "name": "",
          "type": "uint256"
        },
        {
          "internalType": "uint256",
          "name": "",
          "type": "uint256"
        }
      ],
      "name": "repliesByReview",
      "outputs": [
        {
          "internalType": "address",
          "name": "author",
          "type": "address"
        },
        {
          "internalType": "string",
          "name": "ipfsHash",
          "type": "string"
        },
        {
          "internalType": "uint256",
          "name": "timestamp",
          "type": "uint256"
        },
        {
          "internalType": "uint256",
          "name": "parentReviewId",
          "type": "uint256"
        },
        {
          "internalType": "uint256",
          "name": "parentReplyId",
          "type": "uint256"
        }
      ],
      "stateMutability": "view",
      "type": "function"
    },
    {
      "inputs": [],
      "name": "reviewCount",
      "outputs": [
        {
          "internalType": "uint256",
          "name": "",
          "type": "uint256"
        }
      ],
      "stateMutability": "view",
      "type": "function"
    },
    {
      "inputs": [
        {
          "internalType": "uint256",
          "name": "",
          "type": "uint256"
        }
      ],
      "name": "reviews",
      "outputs": [
        {
          "internalType": "address",
          "name": "reviewer",
          "type": "address"
        },
        {
          "internalType": "string",
          "name": "placeId",
          "type": "string"
        },
        {
          "internalType": "string",
          "name": "ipfsHash",
          "type": "string"
        },
        {
          "internalType": "uint8",
          "name": "rating",
          "type": "uint8"
        },
        {
          "internalType": "uint256",
          "name": "timestamp",
          "type": "uint256"
        },
        {
          "internalType": "int256",
          "name": "reputationScore",
          "type": "int256"
        }
      ],
      "stateMutability": "view",
      "type": "function"
    },
    {
      "inputs": [
        {
          "internalType": "string",
          "name": "placeId",
          "type": "string"
        },
        {
          "internalType": "string",
          "name": "ipfsHash",
          "type": "string"
        },
        {
          "internalType": "uint8",
          "name": "rating",
          "type": "uint8"
        }
      ],
      "name": "submitReview",
      "outputs": [],
      "stateMutability": "nonpayable",
      "type": "function"
    },
    {
      "inputs": [
        {
          "internalType": "address",
          "name": "",
          "type": "address"
        }
      ],
      "name": "userReputation",
      "outputs": [
        {
          "internalType": "int256",
          "name": "",
          "type": "int256"
        }
      ],
      "stateMutability": "view",
      "type": "function"
    },
    {
      "inputs": [
        {
          "internalType": "uint256",
          "name": "reviewId",
          "type": "uint256"
        },
        {
          "internalType": "int8",
          "name": "vote",
          "type": "int8"
        }
      ],
      "name": "voteReview",
      "outputs": [],
      "stateMutability": "nonpayable",
      "type": "function"
    }
  ],
  "bytecode": "0x6080604052348015600e575f5ffd5b5061113c8061001c5f395ff3fe608060405234801561000f575f5ffd5b50600436106100b1575f3560e01c8063baccbfdb1161006e578063baccbfdb14610179578063bb5b40ec146101a1578063da9c6a46146101b4578063e503bb05146101d3578063e83ddcea146101f2578063eff5924f14610217575f5ffd5b80630e1af57b146100b55780634b355c15146100ea57806371c5bbcb1461010e578063895f2e5014610123578063990581b614610136578063a092ef1214610156575b5f5ffd5b6100d76100c3366004610b39565b5f9081526020819052604090206005015490565b6040519081526020015b60405180910390f35b6100fd6100f8366004610b50565b610220565b6040516100e1959493929190610b9e565b61012161011c366004610bde565b6102fc565b005b610121610131366004610cb0565b610442565b610149610144366004610b39565b6105a7565b6040516100e19190610d2d565b610169610164366004610b50565b6107a2565b6040516100e19493929190610da5565b6100d7610187366004610ddb565b6001600160a01b03165f9081526002602052604090205490565b6101216101af366004610e08565b610899565b6100d76101c2366004610b39565b5f9081526003602052604090205490565b6100d76101e1366004610ddb565b60026020525f908152604090205481565b610205610200366004610b39565b6109e9565b6040516100e196959493929190610e86565b6100d760015481565b6003602052815f5260405f208181548110610239575f80fd5b5f918252602090912060059091020180546001820180546001600160a01b03909216945091925061026990610edd565b80601f016020809104026020016040519081016040528092919081815260200182805461029590610edd565b80156102e05780601f106102b7576101008083540402835291602001916102e0565b820191905f5260205f20905b8154815290600101906020018083116102c357829003601f168201915b5050505050908060020154908060030154908060040154905085565b600154821061034a5760405162461bcd60e51b815260206004820152601560248201527414995d9a595dc8191bd95cc81b9bdd08195e1a5cdd605a1b60448201526064015b60405180910390fd5b805f0b6001148061035d5750805f0b5f19145b6103a15760405162461bcd60e51b8152602060048201526015602482015274566f7465206d757374206265202b31206f72202d3160581b6044820152606401610341565b5f828152602081905260408120600581018054919284810b926103c5908490610f29565b909155505080546001600160a01b03165f908152600260205260408120805484830b92906103f4908490610f29565b9091555050604080518481525f84900b60208201524281830152905133917f47c7e5c2380663e856e36b26561f3d32c43f7d1864aa3d96e67a5b1d3481dd9d919081900360600190a2505050565b60018160ff161015801561045a575060058160ff1611155b6104975760405162461bcd60e51b815260206004820152600e60248201526d496e76616c696420726174696e6760901b6044820152606401610341565b6040805160c081018252338152602080820186815282840186905260ff851660608401524260808401525f60a084018190526001805482529281905293909320825181546001600160a01b0319166001600160a01b039091161781559251919291908201906105069082610f9c565b506040820151600282019061051b9082610f9c565b50606082015160038201805460ff191660ff9092169190911790556080820151600482015560a09091015160059091015560015460405133917f352ee8b6cb68983cabe7ce7cbf198d121d7b2490a3993ecb4977fe963afc698a916105869190879087904290611057565b60405180910390a260018054905f61059d83611093565b9190505550505050565b6105e86040518060c001604052805f6001600160a01b0316815260200160608152602001606081526020015f60ff1681526020015f81526020015f81525090565b60015482106106315760405162461bcd60e51b815260206004820152601560248201527414995d9a595dc8191bd95cc81b9bdd08195e1a5cdd605a1b6044820152606401610341565b5f8281526020818152604091829020825160c0810190935280546001600160a01b03168352600181018054919284019161066a90610edd565b80601f016020809104026020016040519081016040528092919081815260200182805461069690610edd565b80156106e15780601f106106b8576101008083540402835291602001916106e1565b820191905f5260205f20905b8154815290600101906020018083116106c457829003601f168201915b505050505081526020016002820180546106fa90610edd565b80601f016020809104026020016040519081016040528092919081815260200182805461072690610edd565b80156107715780601f1061074857610100808354040283529160200191610771565b820191905f5260205f20905b81548152906001019060200180831161075457829003601f168201915b5050509183525050600382015460ff1660208201526004820154604082015260059091015460609091015292915050565b5f8281526003602052604081208054606091839182919082908290889081106107cd576107cd6110ab565b5f91825260209091206005909102018054600282015460048301546001840180549495506001600160a01b0390931693839061080890610edd565b80601f016020809104026020016040519081016040528092919081815260200182805461083490610edd565b801561087f5780601f106108565761010080835404028352916020019161087f565b820191905f5260205f20905b81548152906001019060200180831161086257829003601f168201915b505050505092509550955095509550505092959194509250565b5f6040518060a00160405280336001600160a01b0316815260200185858080601f0160208091040260200160405190810160405280939291908181526020018383808284375f92018290525093855250504260208085019190915260408085018b905260609094018790528983526003815292822080546001808201835591845292849020855160059094020180546001600160a01b0319166001600160a01b03909416939093178355928401519394508493919283019161095c915082610f9c565b506040820151816002015560608201518160030155608082015181600401555050336001600160a01b0316600160035f8881526020019081526020015f20805490506109a891906110bf565b867f4c9b45fa18a882fa67f591c99a36220a513c27190bbbfadf50c25d6d85a0c5cb87876040516109da9291906110d8565b60405180910390a45050505050565b5f60208190529081526040902080546001820180546001600160a01b039092169291610a1490610edd565b80601f0160208091040260200160405190810160405280929190818152602001828054610a4090610edd565b8015610a8b5780601f10610a6257610100808354040283529160200191610a8b565b820191905f5260205f20905b815481529060010190602001808311610a6e57829003601f168201915b505050505090806002018054610aa090610edd565b80601f0160208091040260200160405190810160405280929190818152602001828054610acc90610edd565b8015610b175780601f10610aee57610100808354040283529160200191610b17565b820191905f5260205f20905b815481529060010190602001808311610afa57829003601f168201915b5050505060038301546004840154600590940154929360ff9091169290915086565b5f60208284031215610b49575f5ffd5b5035919050565b5f5f60408385031215610b61575f5ffd5b50508035926020909101359150565b5f81518084528060208401602086015e5f602082860101526020601f19601f83011685010191505092915050565b6001600160a01b038616815260a0602082018190525f90610bc190830187610b70565b604083019590955250606081019290925260809091015292915050565b5f5f60408385031215610bef575f5ffd5b8235915060208301355f81900b8114610c06575f5ffd5b809150509250929050565b634e487b7160e01b5f52604160045260245ffd5b5f82601f830112610c34575f5ffd5b813567ffffffffffffffff811115610c4e57610c4e610c11565b604051601f8201601f19908116603f0116810167ffffffffffffffff81118282101715610c7d57610c7d610c11565b604052818152838201602001851015610c94575f5ffd5b816020850160208301375f918101602001919091529392505050565b5f5f5f60608486031215610cc2575f5ffd5b833567ffffffffffffffff811115610cd8575f5ffd5b610ce486828701610c25565b935050602084013567ffffffffffffffff811115610d00575f5ffd5b610d0c86828701610c25565b925050604084013560ff81168114610d22575f5ffd5b809150509250925092565b602080825282516001600160a01b03168282015282015160c060408301525f90610d5a60e0840182610b70565b90506040840151601f19848303016060850152610d778282610b70565b91505060ff6060850151166080840152608084015160a084015260a084015160c08401528091505092915050565b6001600160a01b03851681526080602082018190525f90610dc890830186610b70565b6040830194909452506060015292915050565b5f60208284031215610deb575f5ffd5b81356001600160a01b0381168114610e01575f5ffd5b9392505050565b5f5f5f5f60608587031215610e1b575f5ffd5b84359350602085013567ffffffffffffffff811115610e38575f5ffd5b8501601f81018713610e48575f5ffd5b803567ffffffffffffffff811115610e5e575f5ffd5b876020828401011115610e6f575f5ffd5b949760209190910196509394604001359392505050565b6001600160a01b038716815260c0602082018190525f90610ea990830188610b70565b8281036040840152610ebb8188610b70565b60ff9690961660608401525050608081019290925260a0909101529392505050565b600181811c90821680610ef157607f821691505b602082108103610f0f57634e487b7160e01b5f52602260045260245ffd5b50919050565b634e487b7160e01b5f52601160045260245ffd5b8082018281125f831280158216821582161715610f4857610f48610f15565b505092915050565b601f821115610f9757805f5260205f20601f840160051c81016020851015610f755750805b601f840160051c820191505b81811015610f94575f8155600101610f81565b50505b505050565b815167ffffffffffffffff811115610fb657610fb6610c11565b610fca81610fc48454610edd565b84610f50565b6020601f821160018114610ffc575f8315610fe55750848201515b5f19600385901b1c1916600184901b178455610f94565b5f84815260208120601f198516915b8281101561102b578785015182556020948501946001909201910161100b565b508482101561104857868401515f19600387901b60f8161c191681555b50505050600190811b01905550565b848152608060208201525f61106f6080830186610b70565b82810360408401526110818186610b70565b91505082606083015295945050505050565b5f600182016110a4576110a4610f15565b5060010190565b634e487b7160e01b5f52603260045260245ffd5b818103818111156110d2576110d2610f15565b92915050565b60208152816020820152818360408301375f818301604090810191909152601f909201601f1916010191905056fea26469706673582212202fa706d5a758686a3dd2504802c7daac40fb888cb77043fdf57e5dbe3915bb4a64736f6c634300081c0033",
  "linkReferences": {},
  "deployedLinkReferences": {},
  "immutableReferences": {},
  "inputSourceName": "project/contracts/ReviewRegistry.sol",
  "buildInfoId": "solc-0_8_28-327e4024570746da9f716db3b2f192ddde620d28"
}